:100000000C94B1000C94C6000C94C6000C94C6006D
:100010000C94C6000C94C6000C94C6000C94C60048
:100020000C94C6000C94C6000C94C6000C94C60038
:100030000C94C6000C94C6000C94C6000C94C60028
:100040000C94C6000C94C6000C94C6000C94C60018
:100050000C94C6000C94C6000C94C6000C94C60008
:100060000C94C6000C94C60000407A10F35A00A00D
:10007000724E18090010A5D4E80000E87648170071
:1000800000E40B54020000CA9A3B000000E1F505B1
:10009000000080969800000040420F000000A086FB
:1000A00001000000102700000000E803000000002D
:1000B0006400000000000A000000000001000000D1
:1000C00000002C76D888DC674F0823DFC1DFAE59EB
:1000D000E1B1B796E5E3E453C63AE651997696E87E
:1000E000E6C28426EB898C9B62ED407C6FFCEFBC02
:1000F0009C9F40F2BAA56FA5F490055A2AF75C932D
:100100006B6CF9676DC11BFCE0E40D47FEF520E662
:10011000B500D0ED902E0300943577050080841E45
:10012000080000204E0A000000C80C333333330FA0
:10013000986E12831141EF8D2114893BE65516CF3D
:10014000FEE6DB18D1844B381BF77C1D901DA4BB49
:10015000E424203284725E228100C9F124ECA1E5FE
:100160003D2711241FBECFEFD8E0DEBFCDBF11E089
:10017000A0E0B1E0E2E8FEE002C005900D92A431FB
:10018000B107D9F70E942D020C943F070C94000090
:1001900085B1886085B985E08A95F1F7000085B161
:1001A000877F85B987EC90E00197F1F700C00000E8
:1001B00008959BB1937C9BB983FF03C09BB194606E
:1001C0009BB982FF03C09BB198609BB981FF03C0BC
:1001D0009BB190619BB980FF03C08BB180628BB9EA
:1001E0000E94C8000895CF93C82F613021F485B1D3
:1001F000806185B903C085B18F7E85B98C2F8295CA
:100200008F700E94D9008C2F8F700E94D900CF91DF
:100210000895CF93C82F60E00E94F300C150C23010
:1002200030F48FE39FE10197F1F700C00000CF9118
:10023000089561E00E94F3000895882311F090E48E
:1002400001C090E0862F8F70890F80680E9409019D
:100250000895CF93DF93EC0103C021960E9419010A
:1002600088818111FACFDF91CF91089581E00E94BA
:100270000901089584B1806184B984B1886084B92A
:100280008AB18C638AB92FEF89EF90E021508040CA
:100290009040E1F700C0000085B18F7E85B985B13F
:1002A000877F85B983E00E94D9008FE19EE40197A2
:1002B000F1F700C0000083E00E94D90087E592E0DA
:1002C0000197F1F700C0000083E00E94D90087E5A4
:1002D00092E00197F1F700C0000082E00E94D9008F
:1002E00087E592E00197F1F700C0000088E20E94E4
:1002F000090188E00E94090181E00E94090186E06D
:100300000E9409018CE00E9409010895CF93DF93B8
:10031000EC018A30910568F09C01ADECBCEC0E94C8
:10032000A7049695879596958795969587950E94AB
:1003300086019E01ADECBCEC0E94A70496958795C2
:1003400096958795969587959C01220F331F880F68
:10035000991F880F991F880F991F820F931F9E0165
:10036000281B390BC901805D0E941901DF91CF91D3
:1003700008958F929F92AF92BF92CF92DF92EF92A9
:10038000FF924B015C0120E030E0A9010E94540380
:1003900088233CF48DE20E941901B7FAB094B7F8B3
:1003A000B094C501B4010E9459036B017C01CB01DB
:1003B0000E9486018EE20E941901B60180E090E061
:1003C0000E9488039B01AC01C501B4010E94E702B1
:1003D00020E030E048EC52E40E943A0420E030E0B3
:1003E00040E05FE30E94E8020E9459036B017C0138
:1003F0008AE0C816D10418F480E30E941901C601EE
:100400000E948601FF90EF90DF90CF90BF90AF9059
:100410009F908F900895ECE7F0E080818064808366
:10042000EAE7F0E080818768808308958770ECE7D1
:10043000F0E09081987F892B8083EAE7F0E080816B
:100440008064808380917A0086FDFCCFE8E7F0E04D
:1004500080819181808191810895CF93DF93CDB781
:10046000DEB72A970FB6F894DEBF0FBECDBF0E944D
:1004700098020E94A8020E94AC020E943A010E94C7
:100480000B020E94360160E080E00E941D0180E0C6
:1004900091E00E9429010E94BA0285B1816085B96C
:1004A0000E94AC0285B18E7F85B90E94AC0280E0CB
:1004B0000E941602BC0180E090E00E94880323E2C3
:1004C0003BED49EF5EE30E943A046B017C0160E082
:1004D00081E00E941D01C701B6010E94B9012FEF02
:1004E00083ED90E3215080409040E1F700C0000090
:1004F0008E010F5F1F4F22E045E0C701B6010E9449
:10050000B6048DE091E00E94DA02C8010E94DA028E
:100510008DE00E94D3028AE00E94D3022FEF83ED88
:1005200090E3215080409040E1F700C00000B5CF3B
:1005300084B58E7F84BD84B5826084BD85B58560B9
:1005400085BD85B58D7F85BD84B1816084B90895F1
:1005500088EC87BD16BC089520E030E007C0A99B59
:10056000FECF85B3826085BB2F5F3F4F27323105B9
:10057000B4F308951092C50087E68093C400E1ECBF
:10058000F0E080818861808380818B7F8083E2ECD2
:10059000F0E080818660808380818F7C8083808191
:1005A000877F808308959091C00095FFFCCF809352
:1005B000C6000895CF93DF93EC0103C00E94D302DD
:1005C000219688818111FACFDF91CF9108955058FB
:1005D000BB27AA270E94FF020C9400040E94F2038A
:1005E00038F00E94F90320F039F49F3F19F426F403
:1005F0000C94EF030EF4E095E7FB0C94E903E92F6C
:100600000E94110458F3BA1762077307840795070D
:1006100020F079F4A6F50C9433040EF4E0950B2E3B
:10062000BA2FA02D0B01B90190010C01CA01A00144
:100630001124FF27591B99F0593F50F4503E68F19F
:100640001A16F040A22F232F342F4427585FF3CFE0
:10065000469537952795A795F0405395C9F77EF4B1
:100660001F16BA0B620B730B840BBAF09150A1F0FA
:10067000FF0FBB1F661F771F881FC2F70EC0BA0F80
:10068000621F731F841F48F4879577956795B79508
:10069000F7959E3F08F0B0CF9395880F08F0992703
:1006A000EE0F9795879508950E94C50308F481E0A1
:1006B00008950E94190488F09F5798F0B92F992740
:1006C000B751B0F0E1F0660F771F881F991F1AF03D
:1006D000BA95C9F714C0B13091F00E943304B1E06B
:1006E00008950C943304672F782F8827B85F39F06A
:1006F000B93FCCF3869577956795B395D9F73EF4D6
:1007000090958095709561957F4F8F4F9F4F08957D
:10071000E89409C097FB3EF490958095709561959B
:100720007F4F8F4F9F4F9923A9F0F92F96E9BB2751
:100730009395F695879577956795B795F111F8CFCD
:10074000FAF4BB0F11F460FF1BC06F5F7F4F8F4F38
:100750009F4F16C0882311F096E911C0772321F02E
:100760009EE8872F762F05C0662371F096E8862FC6
:1007700070E060E02AF09A95660F771F881FDAF71D
:10078000880F9695879597F90895990F0008550F4A
:10079000AA0BE0E8FEEF16161706E807F907C0F007
:1007A00012161306E407F50798F0621B730B840B0F
:1007B000950B39F40A2661F0232B242B252B21F4E9
:1007C00008950A2609F4A140A6958FEF811D811D89
:1007D000089597F99F6780E870E060E008959FEFC3
:1007E00080EC089500240A941616170618060906C8
:1007F000089500240A941216130614060506089597
:10080000092E0394000C11F4882352F0BB0F40F41E
:10081000BF2B11F460FF04C06F5F7F4F8F4F9F4F5E
:10082000089557FD9058440F551F59F05F3F71F0E0
:100830004795880F97FB991F61F09F3F79F0879547
:100840000895121613061406551FF2CF4695F1DFD0
:1008500008C0161617061806991FF1CF8695710560
:10086000610508940895E894BB2766277727CB0194
:1008700097F908950E944D040C9400040E94F2031D
:1008800038F00E94F90320F0952311F00C94E9034D
:100890000C94EF0311240C9434040E94110470F39F
:1008A000959FC1F3950F50E0551F629FF001729F15
:1008B000BB27F00DB11D639FAA27F00DB11DAA1F24
:1008C000649F6627B00DA11D661F829F2227B00D71
:1008D000A11D621F739FB00DA11D621F839FA00DFC
:1008E000611D221F749F3327A00D611D231F849F4C
:1008F000600D211D822F762F6A2F11249F575040A3
:100900009AF0F1F088234AF0EE0FFF1FBB1F661F1D
:10091000771F881F91505040A9F79E3F510580F0E6
:100920000C94E9030C9434045F3FE4F3983ED4F351
:10093000869577956795B795F795E7959F5FC1F78A
:10094000FE2B880F911D9695879597F90895A29F84
:10095000B001B39FC001A39F700D811D1124911D93
:10096000B29F700D811D1124911D0895EF920F9378
:100970001F93CF93DF93E80147FD02C034E001C02D
:1009800034E1042E000C550B57FF03C051954195DF
:100990005109E32E022F242FAE010E94D604CE016E
:1009A000DF91CF911F910F91EF900895A9E0B0E0F2
:1009B000ECEDF4E00C940E076A01122FB02E2BE33D
:1009C000201720F0FF24F394F00E02C02CE3F22E47
:1009D0000F2D27E0AE014F5F5F4F0E943006BC0134
:1009E0004981842F8970813031F0E1FC06C0E0FE3E
:1009F00006C090E205C09DE203C09BE201C090E00A
:100A00005E2D507143FF3CC0911102C083E001C0D4
:100A100084E0811718F4212F281B01C020E0511118
:100A20000BC0F601822F30E2882319F031938150F8
:100A3000FBCFC20ED11C20E0992329F0D6019C9354
:100A4000F60131966F01C6010396E2FE0AC03EE44C
:100A5000D6013C9341E411964C93119712963C9326
:100A600006C03EE6F601308341E641833283FC0155
:100A7000322F40E2332309F442C041933150FACF80
:100A800042FF44C0911102C083E001C084E081179D
:100A900018F4212F281B01C020E051110BC0F601D2
:100AA000822F30E2882319F031938150FBCFC20EA0
:100AB000D11C20E0992329F0D6019C93F6013196B0
:100AC0006F01C6010396E2FE0BC039E4D6013C93E8
:100AD0003EE411963C93119736E412963C9307C07E
:100AE00039E6F60130833EE6318336E63283FC0197
:100AF000322F40E2332319F041933150FBCFFC01F8
:100B0000E20FF11D10828EEF9FEFA6C021E030E0D2
:100B1000911102C020E030E0161617061CF4FB010C
:100B2000319602C0E1E0F0E02E0F3F1FBB2021F024
:100B3000EB2DF0E0319602C0E0E0F0E02E0F3F1F19
:100B4000E12FF0E02E173F071CF4121B212F01C0EC
:100B500020E08E2D887159F4F601822F30E288232F
:100B600019F031938150FBCFC20ED11C20E09923A4
:100B700029F0D6019C93F60131966F0151110BC0FB
:100B8000F601822F90E3882319F091938150FBCFD7
:100B9000C20ED11C20E00F2D060F9A81342F307128
:100BA00044FF03C0913309F40150101624F40930B6
:100BB00018F008E001C001E0AB0177FF02C040E09F
:100BC00050E0FB01E41BF50BA1E0B0E0AC0FBD1F52
:100BD000EA0FFB1F8EE2A82E4B01801A91080B2D05
:100BE00010E01195019511094F3FBFEF5B0721F40C
:100BF000D601AC9211966D01641775072CF084161E
:100C0000950614F4818101C080E341505109319669
:100C1000D60111967D014017510724F0D6018C931F
:100C20006701E2CF6417750739F4963320F49533E2
:100C300019F4311101C081E3F6018083F701822F9D
:100C400090E2882319F091938150FBCFF701E20FD6
:100C5000F11D108280E090E02996ECE00C942A07C8
:100C6000283008F027E03327DA01990F311D87FD7E
:100C7000916000966105710539F432602E5F3D93F5
:100C800030E32A95E1F708959F3F30F080387105F1
:100C9000610509F03C5F3C5F3D93913008F080684E
:100CA000911DDF93CF931F930F93FF92EF92192F14
:100CB000987F9695E92F96959695E90FFF27EE5325
:100CC000FF4F99273327EE24FF24A701E701059062
:100CD0000894079428F4360FE71EF81E491F511D8B
:100CE000660F771F881F991F0694A1F70590079438
:100CF00028F4E70EF81E491F561FC11D770F881FE5
:100D0000991F661F0694A1F70590079428F4F80E22
:100D1000491F561FC71FD11D880F991F661F771FB8
:100D20000694A1F70590079420F4490F561FC71F9A
:100D3000D81F990F661F771F881F0694A9F7849103
:100D40001095177041F0D695C79557954795F7942C
:100D5000E7941A95C1F7E8E6F0E0689415901591CC
:100D600035916591959105907FE27395E118F10AAF
:100D7000430B560BC90BD009C0F7E10CF11E431F02
:100D8000561FC91FD01D7EF4703311F48A95E6CF2B
:100D9000E894015030F0080F0AF40027021708F415
:100DA000202F2395022F7A3328F079E37D932A951B
:100DB000E9F710C07D932A9589F606949795679573
:100DC000379517951794E118F10A430B560BC90B89
:100DD000D00998F023957E9173957A3308F070E3EB
:100DE0007C932013B8F77E9170617D9330F08395EA
:100DF00071E37D9370E32A95E1F71124EF90FF9062
:100E00000F911F91CF91DF91992787FD90950895BC
:100E10002F923F924F925F926F927F928F929F920A
:100E2000AF92BF92CF92DF92EF92FF920F931F93F8
:100E3000CF93DF93CDB7DEB7CA1BDB0B0FB6F894A9
:100E4000DEBF0FBECDBF09942A88398848885F84E9
:100E50006E847D848C849B84AA84B984C884DF805A
:100E6000EE80FD800C811B81AA81B981CE0FD11D3E
:100E70000FB6F894DEBF0FBECDBFED010895F89414
:020E8000FFCFA2
:100E820054656D70657261747572653A0054656D72
:040E9200703A200092
:00000001FF
